:100000000C9424000C9441000C9441000C94410089
:100010000C9441000C9441000C9441000C9441005C
:100020000C9441000C9441000C9441000C9441004C
:100030000C9441000C9441000C9441000C9441003C
:100040000C9441000C94410011241FBECFE5D4E074
:10005000DEBFCDBF11E0A0E6B0E0EEE0FDE002C003
:1000600005900D92AC3AB107D9F712E0ACEAB1E0D5
:1000700001C01D92AD31B107E1F70E9443000C941D
:1000800085060C940000DF93CF93CDB7DEB7609761
:100090000FB6F894DEBF0FBECDBF80E790E0BE0183
:1000A0006F5F7F4F40E650E00E945B0680E090E08B
:1000B00060960FB6F894DEBF0FBECDBFCF91DF9133
:1000C0000895FC018581861711F021E007C020E02A
:1000D0008681841709F421E081E02827822F089582
:1000E000FC018781861711F021E007C020E08085A0
:1000F000841709F421E081E02827822F0895FC016C
:10010000DB0180818C93818111968C931197818181
:10011000813C71F480818C9381EE11968C931197C0
:1001200081E012968C931297838116968C93089592
:100130008381803809F06DC084818035B1F18135CB
:1001400030F4803451F0823409F05FC01AC0823537
:10015000E1F1803609F059C048C08581882309F053
:100160005CC08681882309F058C08781803109F0FE
:1001700058C08085803109F054C0CF010E94180416
:1001800008958581882309F048C08681882309F075
:1001900044C08781803109F044C08085803109F0F6
:1001A00040C0CF010E94F103089585818823A9F5FD
:1001B0008681882391F58781803199F5808580310A
:1001C00081F5CF010E94CA0308958581882329F50E
:1001D0008681882311F58781803119F580858031EA
:1001E00001F5CF010E94A303089585818823A9F416
:1001F0008681882391F48781803199F480858031CC
:1002000081F4CF010E947C030895CD010E94B901C1
:100210000895CB010E94B1010895CD010E94C9014A
:100220000895CD010E94C101089565E16A95F1F735
:10023000089569E7FBCF7F936F935F934F9361E0DE
:1002400060930C02BE98C698B699FECFB699FCCFC3
:10025000882799276FE1EADF22D0000059E0442780
:1002600062E400000000E2DF1AD0470F889470FDBE
:100270000894879561E45A95B1F7881F40FD08C03E
:100280006CE4D4DF99274F915F916F917F9108952E
:100290006CE4CCDFBE9AC69866EBC8DFD3CF772775
:1002A0008894B6990894791FC0DF8894B699089409
:1002B000791FBBDF8894B6990894791F76950895C5
:1002C0006F937F9360910C02662329F0B2DFB1DF58
:1002D00060E060930C02C69ABE9AC69867E7A6DFF4
:1002E00098E07727879510F0C69802C0C69A739554
:1002F00066E79CDF00009A95A9F770FD04C0000036
:100300000000C69804C00000C69A0000000060E724
:100310008DDFC69A67E78ADFBE98C6988894B6993B
:10032000089430F08795B699FECF6AE37FDFD3CF8C
:1003300064E77CDF7F916F910895FC011082118248
:10034000128210861782138214820895FC01108293
:10035000118282E08283158282E6838386E8848329
:100360000895FC0182E0828315828EE683831482E5
:100370000895FC0182E0828315828DE683831482D6
:100380000895FC0182E08283158287E683831482CC
:100390000895FC0182E0828315828AE6838380E8E7
:1003A00084830895CF92DF92FF920F931F93DF9380
:1003B000CF93CDB7DEB7C954D0400FB6F894DEBFA7
:1003C0000FBECDBF8C01DC0111962C9111973C9191
:1003D00012964C91129727FF1BC039832A834B83B7
:1003E00016968C918C83132F1227142718271D83A0
:1003F000832F0E9460018A810E9460018B810E948C
:1004000060018C810E946001812F0E94600146C0C2
:1004100039832A834B83632F62276427FC018581FC
:10042000A80194E0C92ED12CCC0EDD1EA82FB0E07F
:100430009E012A0F3B1F2C5F3F4F06C0FA018581AA
:10044000F60181936F0168274F5F5F4FC216D30695
:10045000A9F7F8019381FE01EA0FFB1F9483F801CD
:100460008481FE01EA0FFB1F858389278627868307
:10047000FF246E010894C11CD11C06C0EC0DFD1DAB
:1004800080810E946001F394EF2DF0E0D801129674
:100490008C9190E003968E179F0784F7C75BDF4F20
:1004A0000FB6F894DEBF0FBECDBFCF91DF911F9185
:1004B0000F91FF90DF90CF9008951F93CF93DF931C
:1004C0001BE3C6E8D0E0FE018191182780E0E03907
:1004D000F807D1F78BE30E9460018AEB0E9460016C
:1004E00081E10E94600180E00E94600181E10E9440
:1004F000600181E80E94600189910E94600180E0B2
:10050000C039D807C9F7812F0E946001DF91CF91D0
:100510001F9108957F928F929F92AF92BF92CF9238
:10052000DF92EF92FF920F931F93DF93CF93CDB79C
:10053000DEB7C954D0400FB6F894DEBF0FBECDBFB2
:100540007C010E941B01782E0E941B01882E0E94B4
:100550001B01982E89E4891528F400E010E0C92CCD
:10056000DD240CC08E010F5F1F4F68015801A90CDC
:10057000B11C17C00E941B010F5F1F4F0C151D05FA
:10058000CCF30E941B01D7017C9211968C9211979B
:1005900012969C9282E068C00E941B01F601819332
:1005A0006F01CA14DB04C1F70E941B01682FD70139
:1005B0007C9211968C92119712969C92982D972569
:1005C000992504C0F80181918F0198270C151D050C
:1005D000C9F78981D70113968C9313978A81149652
:1005E0008C9314978B8115968C9315978C81169606
:1005F0008C93169712968C911297853011F48D81F9
:1006000028C0863040F18D81F70187838E010A5F13
:100610001F4F40E050E006C0D8018D918D018087CA
:100620004F5F5F4FD70117968C911797282F30E0B7
:1006300031964217530784F312968C911297E82F44
:10064000F0E02B5F3F4F2E173F072CF4EC0FFD1F00
:10065000808118968C93F7018085813210F083E0B9
:1006600003C080E0961381E0C75BDF4F0FB6F894BC
:10067000DEBF0FBECDBFCF91DF911F910F91FF90D5
:10068000EF90DF90CF90BF90AF909F908F907F9032
:100690000895CF93DF93EC0190E00BC0E92FF0E0D9
:1006A000DE01AE0FBF1F19968C91E455FE4F80837B
:1006B0009F5F8F81981790F3DF91CF910895CF932B
:1006C000DF93EC016E5F6A8362506D8380E98B83F8
:1006D0001C8290E00BC0E92FF0E0DE01AE0FBF1FDF
:1006E000E451FE4F808116968C939F5F8D81981701
:1006F00090F3DF91CF9108950F931F93CF93DF93E2
:10070000EC018B0190E00BC0E92FF0E0DE01AE0FB1
:10071000BF1F19968C91E455FE4F80839F5F8F8198
:10072000981790F38CEA91E06CEE71E040E950E0AC
:100730000E945B06C80160E10E945F03DF91CF91D8
:100740001F910F9108950F931F93CF93DF93EC01A7
:100750008B0190E00BC0E92FF0E0DE01AE0FBF1F70
:1007600019968C91E455FE4F80839F5F8F81981777
:1007700090F38CEA91E06CEE71E040E950E00E9469
:10078000C704C80160E10E945F03DF91CF911F9110
:100790000F9108950F931F93CF93DF93EC018B017B
:1007A00090E00BC0E92FF0E0DE01AE0FBF1F1996FD
:1007B0008C91E455FE4F80839F5F8F81981790F353
:1007C0008CEA91E06CEE71E040E950E00E94860412
:1007D000C80160E10E945F03DF91CF911F910F91EB
:1007E00008950F931F93CF93DF93EC018B0190E05B
:1007F0000BC0E92FF0E0DE01AE0FBF1F19968C9100
:10080000E455FE4F80839F5F8F81981790F38CEAA9
:1008100091E06CEE71E040E950E00E946504C8018F
:1008200060E10E945F03DF91CF911F910F910895C6
:100830000F931F93CF93DF93EC018B0190E00BC0DC
:10084000E92FF0E0DE01AE0FBF1F19968C91E45541
:10085000FE4F80839F5F8F81981790F38CEA91E021
:100860006CEE71E040E950E00E943F04C80160E195
:100870000E945F03DF91CF911F910F9108950F9315
:100880001F93CF93DF938C0187B3806A87BB88B3B4
:10089000806A88BBEB0120E030E0FA01E20FF31F31
:1008A000D801A20FB31F80819C9189278F872F5F6A
:1008B0003F4F21972031310581F788B38F7588BB71
:1008C000DF91CF911F910F910895CF93DF9327B3BD
:1008D000206A27BB28B3206A28BBEC0120E030E067
:1008E000DB01A20FB31FFA01E20FF31F80819F8586
:1008F00089278C932F5F3F4F21972031310581F756
:1009000088B38F7588BBDF91CF9108952F923F9266
:100910004F925F926F927F928F929F92AF92BF920F
:10092000CF92DF92EF92FF920F931F93CF93DF93BB
:10093000EF93FF93B92FA82FD72FC62FF52FE42FB2
:10094000BD9ABF9AC59AC79A00E11127C00FD11F5F
:1009500020E10D91119101270A932A95D1F7C598AD
:10096000C798FF91EF91DF91CF911F910F91FF9069
:10097000EF90DF90CF90BF90AF909F908F907F903F
:100980006F905F904F903F902F90112408952F9279
:100990003F924F925F926F927F928F929F92AF920F
:1009A000BF92CF92DF92EF92FF920F931F93CF935C
:1009B000DF93EF93FF93A82FB92FC62FD72FE42FE4
:1009C000F52FBD9ABF9AC59AC79A00E11127A00FCB
:1009D000B11F20E10E911191012709932A95D1F7BA
:1009E000C598C798FF91EF91DF91CF911F910F911B
:1009F000FF90EF90DF90CF90BF90AF909F908F903F
:100A00007F906F905F904F903F902F9011240895AA
:100A1000CF93DF93FC01EB01DB0120E030E080812C
:100A20008C93818111968C931197828112968C936D
:100A30001297838113968C9313972F5F3F4F3496B1
:100A400014962430310559F7A4E0B0E061507040AD
:100A5000EE85F0E0E555FF4F4081FB018081E82FF6
:100A6000F0E0E555FF4F3081EC85F0E0E555FF4FB4
:100A70002081ED85F0E0E555FF4F90818881982732
:100A8000FD01F695E795F695E795E056FF4F8081D5
:100A90009827988B89814827498B8A8138273A8BF8
:100AA0008B8128272B8B11962496AC32B10581F6C9
:100AB000DF91CF9108959C0140E019C08C91E82FFF
:100AC000E295EF70F0E08F7054E0EE0FFF1F5A9543
:100AD000E1F7E80FF11DE555FF4F80818D939F5F92
:100AE000943061F74F5F2C5F3F4F443019F0D901CC
:100AF00090E0E4CF0895DC01149631E012C04C91EF
:100B0000FD0191E0818181939F5F9430D9F7139625
:100B10004C9313972F5F231790F33F5F1496343055
:100B200011F020E0ECCF08950F931F93DC0110E04B
:100B30000BE1EC9111964C9111972E2F24271396CF
:100B4000FC91139712966C9112975F2F5627752F71
:100B50007227372F3E27822F881F8827881F809F64
:100B6000C0011124220F282732273C93242F262747
:100B7000822F881F8827881F809FC0011124220F81
:100B800028274727422711964C931197852F881FB6
:100B90008827881F809FC0011124550F5827672779
:100BA000652712966C9312972F2F2E27822F881F5E
:100BB0008827881F809FC0011124220F28277F27A4
:100BC000722713967C9313971F5F1496143009F0C5
:100BD000B0CF1F910F910895CF93DF9350E0440F52
:100BE000551F440F551FFC01440F551F440F551F3F
:100BF000EB01C40FD51FDA011296A60FB71F20E034
:100C00008081988189278083848199818927848341
:100C100080859C918927808784859B81892784870B
:100C20002F5F319624961496243051F7DF91CF919F
:100C30000895EF92FF921F93CF93DF93EC017B0116
:100C400040E00E94EC0511E0CE010E945B05CE0160
:100C50000E947B05CE010E949405CE01B701412F71
:100C60000E94EC051F5F1A3079F7CE010E945B05E8
:100C7000CE010E947B05CE01B7014AE00E94EC053F
:100C8000DF91CF911F91FF90EF900895DF93CF9365
:100C9000CDB7DEB760970FB6F894DEBF0FBECDBFFD
:100CA000CE01019660960FB6F894DEBF0FBECDBFA1
:100CB000CF91DF910895EF92FF920F931F93DF93EF
:100CC000CF93CDB7DEB7C050D4400FB6F894DEBF97
:100CD0000FBECDBF8C01CA017E010894E11CF11C3E
:100CE000B7010E940805C801B7010E941906C0504B
:100CF000DC4F0FB6F894DEBF0FBECDBFCF91DF91B2
:0E0D00001F910F91FF90EF900895F894FFCF90
:100D0E0000112233445566778899AABBCCDDEEFFDD
:100D1E0000112233445566778899AABBCCDDEEFFCD
:100D2E003BBA110011812A4649545F435655542A45
:100D3E0000112233445566778899AABBCCDDEEFFAD
:100D4E000001020408102040801B36637C777BF282
:100D5E006B6FC53001672BFED7AB76CA82C97DFAA1
:100D6E005947F0ADD4A2AF9CA472C0B7FD932636FE
:100D7E003FF7CC34A5E5F171D8311504C723C3185C
:100D8E0096059A071280E2EB27B27509832C1A1B7F
:100D9E006E5AA0523BD6B329E32F8453D100ED20D7
:100DAE00FCB15B6ACBBE394A4C58CFD0EFAAFB439D
:100DBE004D338545F9027F503C9FA851A3408F9239
:100DCE009D38F5BCB6DA2110FFF3D2CD0C13EC5FD3
:100DDE00974417C4A77E3D645D197360814FDC2272
:100DEE002A908846EEB814DE5E0BDBE0323A0A49F2
:100DFE0006245CC2D3AC629195E479E7C8376D8D59
:100E0E00D54EA96C56F4EA657AAE08BA78252E1C32
:100E1E00A6B4C6E8DD741F4BBD8B8A703EB566481E
:100E2E0003F60E613557B986C11D9EE1F89811691A
:100E3E00D98E949B1E87E9CE5528DF8CA1890DBFD4
:0C0E4E00E6426841992D0FB054BB16001D
:00000001FF
