:100000000C9424000C9441000C9441000C94410089
:100010000C9441000C9441000C9441000C9441005C
:100020000C9441000C9441000C9441000C9441004C
:100030000C9441000C9441000C9441000C9441003C
:100040000C9441000C94410011241FBECFE5D4E074
:10005000DEBFCDBF11E0A0E6B0E0E6E6F0E102C011
:1000600005900D92AC3AB107D9F712E0ACEAB1E0D5
:1000700001C01D92AD31B107E1F70E9443000C941D
:1000800031080C940000DF93CF93CDB7DEB76097B3
:100090000FB6F894DEBF0FBECDBF80E790E0BE0183
:1000A0006F5F7F4F40E650E00E94E60780E090E0FF
:1000B00060960FB6F894DEBF0FBECDBFCF91DF9133
:1000C0000895FC018581861711F021E007C020E02A
:1000D0008681841709F421E081E02827822F089582
:1000E000FC018781861711F021E007C020E08085A0
:1000F000841709F421E081E02827822F0895FC016C
:10010000DB0180818C93818111968C931197818181
:10011000813C71F480818C9381EE11968C931197C0
:1001200081E012968C931297838116968C93089592
:100130008381803809F06DC084818035B1F18135CB
:1001400030F4803451F0823409F05FC01AC0823537
:10015000E1F1803609F059C048C08581882309F053
:100160005CC08681882309F058C08781803109F0FE
:1001700058C08085803109F054C0CF010E94180416
:1001800008958581882309F048C08681882309F075
:1001900044C08781803109F044C08085803109F0F6
:1001A00040C0CF010E94F103089585818823A9F5FD
:1001B0008681882391F58781803199F5808580310A
:1001C00081F5CF010E94CA0308958581882329F50E
:1001D0008681882311F58781803119F580858031EA
:1001E00001F5CF010E94A303089585818823A9F416
:1001F0008681882391F48781803199F480858031CC
:1002000081F4CF010E947C030895CD010E94B901C1
:100210000895CB010E94B1010895CD010E94C9014A
:100220000895CD010E94C101089565E16A95F1F735
:10023000089569E7FBCF7F936F935F934F9361E0DE
:1002400060930C02BE98C698B699FECFB699FCCFC3
:10025000882799276FE1EADF22D0000059E0442780
:1002600062E400000000E2DF1AD0470F889470FDBE
:100270000894879561E45A95B1F7881F40FD08C03E
:100280006CE4D4DF99274F915F916F917F9108952E
:100290006CE4CCDFBE9AC69866EBC8DFD3CF772775
:1002A0008894B6990894791FC0DF8894B699089409
:1002B000791FBBDF8894B6990894791F76950895C5
:1002C0006F937F9360910C02662329F0B2DFB1DF58
:1002D00060E060930C02C69ABE9AC69867E7A6DFF4
:1002E00098E07727879510F0C69802C0C69A739554
:1002F00066E79CDF00009A95A9F770FD04C0000036
:100300000000C69804C00000C69A0000000060E724
:100310008DDFC69A67E78ADFBE98C6988894B6993B
:10032000089430F08795B699FECF6AE37FDFD3CF8C
:1003300064E77CDF7F916F910895FC011082118248
:10034000128210861782138214820895FC01108293
:10035000118282E08283158282E6838386E8848329
:100360000895FC0182E0828315828EE683831482E5
:100370000895FC0182E0828315828DE683831482D6
:100380000895FC0182E08283158287E683831482CC
:100390000895FC0182E0828315828AE6838380E8E7
:1003A00084830895CF92DF92FF920F931F93DF9380
:1003B000CF93CDB7DEB7C954D0400FB6F894DEBFA7
:1003C0000FBECDBF8C01DC0111962C9111973C9191
:1003D00012964C91129727FF1BC039832A834B83B7
:1003E00016968C918C83132F1227142718271D83A0
:1003F000832F0E9460018A810E9460018B810E948C
:1004000060018C810E946001812F0E94600146C0C2
:1004100039832A834B83632F62276427FC018581FC
:10042000A80194E0C92ED12CCC0EDD1EA82FB0E07F
:100430009E012A0F3B1F2C5F3F4F06C0FA018581AA
:10044000F60181936F0168274F5F5F4FC216D30695
:10045000A9F7F8019381FE01EA0FFB1F9483F801CD
:100460008481FE01EA0FFB1F858389278627868307
:10047000FF246E010894C11CD11C06C0EC0DFD1DAB
:1004800080810E946001F394EF2DF0E0D801129674
:100490008C9190E003968E179F0784F7C75BDF4F20
:1004A0000FB6F894DEBF0FBECDBFCF91DF911F9185
:1004B0000F91FF90DF90CF9008951F93CF93DF931C
:1004C0001BE3C6E8D0E0FE018191182780E0E03907
:1004D000F807D1F78BE30E9460018AEB0E9460016C
:1004E00081E10E94600180E00E94600181E10E9440
:1004F000600181E80E94600189910E94600180E0B2
:10050000C039D807C9F7812F0E946001DF91CF91D0
:100510001F9108957F928F929F92AF92BF92CF9238
:10052000DF92EF92FF920F931F93DF93CF93CDB79C
:10053000DEB7C954D0400FB6F894DEBF0FBECDBFB2
:100540007C010E941B01782E0E941B01882E0E94B4
:100550001B01982E89E4891528F400E010E0C92CCD
:10056000DD240CC08E010F5F1F4F68015801A90CDC
:10057000B11C17C00E941B010F5F1F4F0C151D05FA
:10058000CCF30E941B01D7017C9211968C9211979B
:1005900012969C9282E068C00E941B01F601819332
:1005A0006F01CA14DB04C1F70E941B01682FD70139
:1005B0007C9211968C92119712969C92982D972569
:1005C000992504C0F80181918F0198270C151D050C
:1005D000C9F78981D70113968C9313978A81149652
:1005E0008C9314978B8115968C9315978C81169606
:1005F0008C93169712968C911297853011F48D81F9
:1006000028C0863040F18D81F70187838E010A5F13
:100610001F4F40E050E006C0D8018D918D018087CA
:100620004F5F5F4FD70117968C911797282F30E0B7
:1006300031964217530784F312968C911297E82F44
:10064000F0E02B5F3F4F2E173F072CF4EC0FFD1F00
:10065000808118968C93F7018085813210F083E0B9
:1006600003C080E0961381E0C75BDF4F0FB6F894BC
:10067000DEBF0FBECDBFCF91DF911F910F91FF90D5
:10068000EF90DF90CF90BF90AF909F908F907F9032
:100690000895CF93DF93EC0190E00BC0E92FF0E0D9
:1006A000DE01AE0FBF1F19968C91E455FE4F80837B
:1006B0009F5F8F81981790F3DF91CF910895CF932B
:1006C000DF93EC016E5F6A8362506D8380E98B83F8
:1006D0001C8290E00BC0E92FF0E0DE01AE0FBF1FDF
:1006E000E451FE4F808116968C939F5F8D81981701
:1006F00090F3DF91CF9108950F931F93CF93DF93E2
:10070000EC018B0190E00BC0E92FF0E0DE01AE0FB1
:10071000BF1F19968C91E455FE4F80839F5F8F8198
:10072000981790F38CEA91E06CEE71E040E950E0AC
:100730000E94E607C80160E10E945F03DF91CF914C
:100740001F910F9108950F931F93CF93DF93EC01A7
:100750008B0190E00BC0E92FF0E0DE01AE0FBF1F70
:1007600019968C91E455FE4F80839F5F8F81981777
:1007700090F38CEA91E06CEE71E040E950E00E9469
:10078000C704C80160E10E945F03DF91CF911F9110
:100790000F9108950F931F93CF93DF93EC018B017B
:1007A00090E00BC0E92FF0E0DE01AE0FBF1F1996FD
:1007B0008C91E455FE4F80839F5F8F81981790F353
:1007C0008CEA91E06CEE71E040E950E00E94860412
:1007D000C80160E10E945F03DF91CF911F910F91EB
:1007E00008950F931F93CF93DF93EC018B0190E05B
:1007F0000BC0E92FF0E0DE01AE0FBF1F19968C9100
:10080000E455FE4F80839F5F8F81981790F38CEAA9
:1008100091E06CEE71E040E950E00E946504C8018F
:1008200060E10E945F03DF91CF911F910F910895C6
:100830000F931F93CF93DF93EC018B0190E00BC0DC
:10084000E92FF0E0DE01AE0FBF1F19968C91E45541
:10085000FE4F80839F5F8F81981790F38CEA91E021
:100860006CEE71E040E950E00E943F04C80160E195
:100870000E945F03DF91CF911F910F9108950F9315
:100880001F93CF93DF938C0187B3806A87BB88B3B4
:10089000806A88BBEB0120E030E0FA01E20FF31F31
:1008A000D801A20FB31F80819C9189278F872F5F6A
:1008B0003F4F21972031310581F788B38F7588BB71
:1008C000DF91CF911F910F910895CF93DF9327B3BD
:1008D000206A27BB28B3206A28BBEC0120E030E067
:1008E000DB01A20FB31FFA01E20FF31F80819F8586
:1008F00089278C932F5F3F4F21972031310581F756
:1009000088B38F7588BBDF91CF9108952F923F9266
:100910004F925F926F927F928F929F92AF92BF920F
:10092000CF92DF92EF92FF920F931F93CF93DF93BB
:10093000EF93FF93B92FA82FD72FC62FF52FE42FB2
:10094000BD9ABF9AC59AC79A00E11127C00FD11F5F
:1009500020E10D91119101270A932A95D1F7C598AD
:10096000C798FF91EF91DF91CF911F910F91FF9069
:10097000EF90DF90CF90BF90AF909F908F907F903F
:100980006F905F904F903F902F90112408952F9279
:100990003F924F925F926F927F928F929F92AF920F
:1009A000BF92CF92DF92EF92FF920F931F93CF935C
:1009B000DF93EF93FF93A82FB92FC62FD72FE42FE4
:1009C000F52FBD9ABF9AC59AC79A00E11127A00FCB
:1009D000B11F20E10E911191012709932A95D1F7BA
:1009E000C598C798FF91EF91DF91CF911F910F911B
:1009F000FF90EF90DF90CF90BF90AF909F908F903F
:100A00007F906F905F904F903F902F9011240895AA
:100A1000CF93DF93EC01DB01FB0120E030E0888124
:100A20008083898181838A8182838B8183832F5F05
:100A30003F4F249634962430310589F744E050E046
:100A40001C962C911C971D963C911D971E966C919F
:100A50001E971F967C911F97CA0183709070892BF7
:100A6000E9F4E32FF0E0E555FF4F8081E62FF0E059
:100A7000E555FF4F3081E72FF0E0E555FF4F6081EE
:100A8000E22FF0E0E555FF4F7081FA01F695E7950A
:100A9000F695E795E056FF4F208128278C9128276F
:100AA00050962C93509711968C9111973827519608
:100AB0003C93519712968C911297682752966C939B
:100AC000529713968C911397782753967C9353974C
:100AD0004F5F5F4F14964C32510509F0B1CFDF9153
:100AE000CF9108959C0140E019C08C91E82FE295C8
:100AF000EF70F0E08F7054E0EE0FFF1F5A95E1F7B2
:100B0000E80FF11DE555FF4F80818D939F5F943075
:100B100061F74F5F2C5F3F4F443019F0D90190E0EF
:100B2000E4CF0895FC01918185818183818585834E
:100B300085858187958726819281828582838685B6
:100B4000868392872687938187858383838587879A
:100B50008781838797830895982F30E020E04BE1C9
:100B600060FD3927892F8078990F811194272F5F95
:100B7000283011F06695F4CF832F0895AF92BF927D
:100B8000CF92DF92EF92FF920F931F938C01FC01A3
:100B9000C080B180A28082E06C2D0E94AC05D82E6E
:100BA00083E0F80161810E94AC05F82E81E0F80134
:100BB00062810E94AC05E82E81E0F80163810E9409
:100BC000AC05FD24FE24F826F801F08281E06C2DAE
:100BD0000E94AC05D82E82E0F80161810E94AC052C
:100BE000F82E83E0F80162810E94AC05E82E81E0D6
:100BF000F80163810E94AC05FD24FE24F826F8016B
:100C0000F18281E06C2D0E94AC05D82E81E06B2D25
:100C10000E94AC05F82E82E0F80162810E94AC05CA
:100C2000E82E83E0F80163810E94AC05FD24FE24D8
:100C3000F826F801F28283E06C2D0E94AC05D82ED4
:100C400081E06B2D0E94AC05F82E81E06A2D0E9498
:100C5000AC05E82E82E0F80163810E94AC05FD241A
:100C6000FE24F826F801F382C480B580A68082E0D5
:100C70006C2D0E94AC05D82E83E0F80165810E949E
:100C8000AC05F82E81E0F80166810E94AC05E82EE3
:100C900081E0F80167810E94AC05FD24FE24F8265E
:100CA000F801F48281E06C2D0E94AC05D82E82E020
:100CB000F80165810E94AC05F82E83E0F801668199
:100CC0000E94AC05E82E81E0F80167810E94AC0526
:100CD000FD24FE24F826F801F58281E06C2D0E94A7
:100CE000AC05D82E81E06B2D0E94AC05F82E82E079
:100CF000F80166810E94AC05E82E83E0F801678167
:100D00000E94AC05FD24FE24F826F801F68283E05B
:100D10006C2D0E94AC05D82E81E06B2D0E94AC0595
:100D2000F82E81E06A2D0E94AC05E82E82E0F801E1
:100D300067810E94AC05FD24FE24F826F801F782A5
:100D4000C084B184A28482E06C2D0E94AC05D82EB0
:100D500083E0F80161850E94AC05F82E81E0F8017E
:100D600062850E94AC05E82E81E0F80163850E944F
:100D7000AC05FD24FE24F826F801F08681E06C2DF8
:100D80000E94AC05D82E82E0F80161850E94AC0576
:100D9000F82E83E0F80162850E94AC05E82E81E020
:100DA000F80163850E94AC05FD24FE24F826F801B5
:100DB000F18681E06C2D0E94AC05D82E81E06B2D70
:100DC0000E94AC05F82E82E0F80162850E94AC0515
:100DD000E82E83E0F80163850E94AC05FD24FE2423
:100DE000F826F801F28683E06C2D0E94AC05D82E1F
:100DF00081E06B2D0E94AC05F82E81E06A2D0E94E7
:100E0000AC05E82E82E0F80163850E94AC05FD2464
:100E1000FE24F826F801F386C484B584A68482E013
:100E20006C2D0E94AC05D82E83E0F80165850E94E8
:100E3000AC05F82E81E0F80166850E94AC05E82E2D
:100E400081E0F80167850E94AC05FD24FE24F826A8
:100E5000F801F48681E06C2D0E94AC05D82E82E06A
:100E6000F80165850E94AC05F82E83E0F8016685DF
:100E70000E94AC05E82E81E0F80167850E94AC0570
:100E8000FD24FE24F826F801F58681E06C2D0E94F1
:100E9000AC05D82E81E06B2D0E94AC05F82E82E0C7
:100EA000F80166850E94AC05E82E83E0F8016785AD
:100EB0000E94AC05FD24FE24F826F801F68683E0A6
:100EC0006C2D0E94AC05D82E81E06B2D0E94AC05E4
:100ED000F82E81E06A2D0E94AC05E82E82E0F80130
:100EE00067850E94AC05FD24FE24F826F801F786EC
:100EF0001F910F91FF90EF90DF90CF90BF90AF9038
:100F00000895DB01FC0150E064E0440F551F6A9531
:100F1000E1F7A40FB51F20E080819C918927808391
:100F2000848114969C9114978927848380851896D0
:100F30009C9118978927808784851C969C911C9783
:100F4000892784872F5F31961196243029F70895D9
:100F5000EF92FF921F93CF93DF93EC017B0140E070
:100F60000E94810711E0CE010E947205CE010E940D
:100F70009205CE010E94BE05CE01B701412F0E940D
:100F800081071F5F1A3079F7CE010E947205CE01EA
:100F90000E949205CE01B7014AE00E948107DF91CD
:100FA000CF911F91FF90EF900895AC0120E030E0C9
:100FB000FB01E20FF31FDA01A20FB31F8C918083B4
:100FC0002F5F3F4F2031310599F70895CF92DF927F
:100FD000EF92FF920F931F93DF93CF93CDB7DEB7BE
:100FE000C050D4400FB6F894DEBF0FBECDBF7C0119
:100FF0006B01CA0127B3206A27BB28B3206A28BB2C
:101000008E010F5F1F4F20E034E0F801A90111921B
:1010100041505040E1F7B8010E940805C701B801EE
:101020000E94A80720E030E0F601E20FF31FD7018D
:10103000A20FB31F8C9180832F5F3F4F203131056A
:1010400099F7C050DC4F0FB6F894DEBF0FBECDBF8E
:10105000CF91DF911F910F91FF90EF90DF90CF9094
:061060000895F894FFCF93
:1010660000112233445566778899AABBCCDDEEFF82
:1010760000112233445566778899AABBCCDDEEFF72
:101086003BBA110011812A4649545F435655542AEA
:1010960000112233445566778899AABBCCDDEEFF52
:1010A6000001020408102040801B36637C777BF227
:1010B6006B6FC53001672BFED7AB76CA82C97DFA46
:1010C6005947F0ADD4A2AF9CA472C0B7FD932636A3
:1010D6003FF7CC34A5E5F171D8311504C723C31801
:1010E60096059A071280E2EB27B27509832C1A1B24
:1010F6006E5AA0523BD6B329E32F8453D100ED207C
:10110600FCB15B6ACBBE394A4C58CFD0EFAAFB4341
:101116004D338545F9027F503C9FA851A3408F92DD
:101126009D38F5BCB6DA2110FFF3D2CD0C13EC5F77
:10113600974417C4A77E3D645D197360814FDC2216
:101146002A908846EEB814DE5E0BDBE0323A0A4996
:1011560006245CC2D3AC629195E479E7C8376D8DFD
:10116600D54EA96C56F4EA657AAE08BA78252E1CD7
:10117600A6B4C6E8DD741F4BBD8B8A703EB56648C3
:1011860003F60E613557B986C11D9EE1F8981169BF
:10119600D98E949B1E87E9CE5528DF8CA1890DBF79
:0C11A600E6426841992D0FB054BB1600C2
:00000001FF
